{
  "address": "0x9A0231DA0dAad143E97D0192E4C81f059AB54711",
  "abi": [
    {
      "inputs": [],
      "stateMutability": "nonpayable",
      "type": "constructor"
    },
    {
      "inputs": [
        {
          "internalType": "address",
          "name": "_owner",
          "type": "address"
        },
        {
          "internalType": "string",
          "name": "_storeId",
          "type": "string"
        },
        {
          "internalType": "string",
          "name": "_secretName",
          "type": "string"
        }
      ],
      "name": "addEmail",
      "outputs": [],
      "stateMutability": "nonpayable",
      "type": "function"
    },
    {
      "inputs": [
        {
          "internalType": "string",
          "name": "_email",
          "type": "string"
        },
        {
          "internalType": "string",
          "name": "_userID",
          "type": "string"
        }
      ],
      "name": "createProfile",
      "outputs": [],
      "stateMutability": "nonpayable",
      "type": "function"
    },
    {
      "inputs": [
        {
          "internalType": "address",
          "name": "",
          "type": "address"
        },
        {
          "internalType": "uint256",
          "name": "",
          "type": "uint256"
        }
      ],
      "name": "emails",
      "outputs": [
        {
          "internalType": "string",
          "name": "storeId",
          "type": "string"
        },
        {
          "internalType": "string",
          "name": "secretName",
          "type": "string"
        }
      ],
      "stateMutability": "view",
      "type": "function"
    },
    {
      "inputs": [
        {
          "internalType": "address",
          "name": "_owner",
          "type": "address"
        }
      ],
      "name": "getEmails",
      "outputs": [
        {
          "components": [
            {
              "internalType": "string",
              "name": "storeId",
              "type": "string"
            },
            {
              "internalType": "string",
              "name": "secretName",
              "type": "string"
            }
          ],
          "internalType": "struct EmailEon.Email[]",
          "name": "",
          "type": "tuple[]"
        }
      ],
      "stateMutability": "view",
      "type": "function"
    },
    {
      "inputs": [
        {
          "internalType": "address",
          "name": "_owner",
          "type": "address"
        }
      ],
      "name": "getHasProfile",
      "outputs": [
        {
          "internalType": "bool",
          "name": "",
          "type": "bool"
        }
      ],
      "stateMutability": "view",
      "type": "function"
    },
    {
      "inputs": [
        {
          "internalType": "address",
          "name": "_owner",
          "type": "address"
        }
      ],
      "name": "getProfile",
      "outputs": [
        {
          "components": [
            {
              "internalType": "address",
              "name": "owner",
              "type": "address"
            },
            {
              "internalType": "string",
              "name": "email",
              "type": "string"
            },
            {
              "internalType": "string",
              "name": "userID",
              "type": "string"
            }
          ],
          "internalType": "struct EmailEon.Profile",
          "name": "",
          "type": "tuple"
        }
      ],
      "stateMutability": "view",
      "type": "function"
    },
    {
      "inputs": [
        {
          "internalType": "address",
          "name": "_owner",
          "type": "address"
        }
      ],
      "name": "getSubscribeTo",
      "outputs": [
        {
          "components": [
            {
              "internalType": "string",
              "name": "email",
              "type": "string"
            },
            {
              "internalType": "string",
              "name": "storeId",
              "type": "string"
            }
          ],
          "internalType": "struct EmailEon.Subscription[]",
          "name": "",
          "type": "tuple[]"
        }
      ],
      "stateMutability": "view",
      "type": "function"
    },
    {
      "inputs": [
        {
          "internalType": "address",
          "name": "",
          "type": "address"
        }
      ],
      "name": "hasProfile",
      "outputs": [
        {
          "internalType": "bool",
          "name": "",
          "type": "bool"
        }
      ],
      "stateMutability": "view",
      "type": "function"
    },
    {
      "inputs": [
        {
          "internalType": "address",
          "name": "",
          "type": "address"
        }
      ],
      "name": "profiles",
      "outputs": [
        {
          "internalType": "address",
          "name": "owner",
          "type": "address"
        },
        {
          "internalType": "string",
          "name": "email",
          "type": "string"
        },
        {
          "internalType": "string",
          "name": "userID",
          "type": "string"
        }
      ],
      "stateMutability": "view",
      "type": "function"
    },
    {
      "inputs": [
        {
          "internalType": "address",
          "name": "",
          "type": "address"
        },
        {
          "internalType": "uint256",
          "name": "",
          "type": "uint256"
        }
      ],
      "name": "subscribeTo",
      "outputs": [
        {
          "internalType": "string",
          "name": "email",
          "type": "string"
        },
        {
          "internalType": "string",
          "name": "storeId",
          "type": "string"
        }
      ],
      "stateMutability": "view",
      "type": "function"
    }
  ],
  "transactionHash": "0x3eeacba4aa88aabec99c5a673ad038fd6d5ce2a7ea653b1373c101ff216b3e18",
  "args": [],
  "numDeployments": 1,
  "solcInputHash": "1284e497619947a1801c4bb8d96f6fcd",
  "bytecode": "0x608060405234801561001057600080fd5b50611089806100206000396000f3fe608060405234801561001057600080fd5b506004361061009e5760003560e01c806359b5f2a61161006657806359b5f2a61461015e578063a787c80b1461017e578063ba1feb8a146101a1578063bbe15627146101b4578063bd8221ea146101d657600080fd5b80630f53a470146100a3578063228f14a4146100cc578063303c6cea146100ed578063323184c71461010d57806349c3268414610122575b600080fd5b6100b66100b1366004610b63565b6101e9565b6040516100c39190610bcb565b60405180910390f35b6100df6100da366004610c1f565b610373565b6040516100c3929190610c49565b6101006100fb366004610b63565b6104c4565b6040516100c39190610c9c565b61012061011b366004610da1565b61065d565b005b61014e610130366004610b63565b6001600160a01b031660009081526002602052604090205460ff1690565b60405190151581526020016100c3565b61017161016c366004610b63565b6107d1565b6040516100c39190610e15565b61014e61018c366004610b63565b60026020526000908152604090205460ff1681565b6101206101af366004610e6a565b61095d565b6101c76101c2366004610b63565b6109ed565b6040516100c393929190610ece565b6100df6101e4366004610c1f565b610b2b565b610216604051806060016040528060006001600160a01b0316815260200160608152602001606081525090565b6001600160a01b038083166000908152600160208181526040928390208351606081019094528054909416835290830180549293929184019161025890610f0e565b80601f016020809104026020016040519081016040528092919081815260200182805461028490610f0e565b80156102d15780601f106102a6576101008083540402835291602001916102d1565b820191906000526020600020905b8154815290600101906020018083116102b457829003601f168201915b505050505081526020016002820180546102ea90610f0e565b80601f016020809104026020016040519081016040528092919081815260200182805461031690610f0e565b80156103635780601f1061033857610100808354040283529160200191610363565b820191906000526020600020905b81548152906001019060200180831161034657829003601f168201915b5050505050815250509050919050565b6000602052816000526040600020818154811061038f57600080fd5b9060005260206000209060020201600091509150508060000180546103b390610f0e565b80601f01602080910402602001604051908101604052809291908181526020018280546103df90610f0e565b801561042c5780601f106104015761010080835404028352916020019161042c565b820191906000526020600020905b81548152906001019060200180831161040f57829003601f168201915b50505050509080600101805461044190610f0e565b80601f016020809104026020016040519081016040528092919081815260200182805461046d90610f0e565b80156104ba5780601f1061048f576101008083540402835291602001916104ba565b820191906000526020600020905b81548152906001019060200180831161049d57829003601f168201915b5050505050905082565b6001600160a01b0381166000908152600360209081526040808320805482518185028101850190935280835260609492939192909184015b82821015610652578382906000526020600020906002020160405180604001604052908160008201805461052f90610f0e565b80601f016020809104026020016040519081016040528092919081815260200182805461055b90610f0e565b80156105a85780601f1061057d576101008083540402835291602001916105a8565b820191906000526020600020905b81548152906001019060200180831161058b57829003601f168201915b505050505081526020016001820180546105c190610f0e565b80601f01602080910402602001604051908101604052809291908181526020018280546105ed90610f0e565b801561063a5780601f1061060f5761010080835404028352916020019161063a565b820191906000526020600020905b81548152906001019060200180831161061d57829003601f168201915b505050505081525050815260200190600101906104fc565b505050509050919050565b6001600160a01b038316600090815260208181526040808320815180830190925285825281830185905280546001810182559084529190922082516002909202019081906106ab9082610f93565b50602082015160018201906106c09082610f93565b5050336000908152600360209081526040808320815180830183526001600160a01b0389168552600193849052919093209091018054929350909182919061070790610f0e565b80601f016020809104026020016040519081016040528092919081815260200182805461073390610f0e565b80156107805780601f1061075557610100808354040283529160200191610780565b820191906000526020600020905b81548152906001019060200180831161076357829003601f168201915b5050509183525050602090810185905282546001810184556000938452922081519192600202019081906107b49082610f93565b50602082015160018201906107c99082610f93565b505050505050565b6001600160a01b038116600090815260208181526040808320805482518185028101850190935280835260609492939192909184015b82821015610652578382906000526020600020906002020160405180604001604052908160008201805461083a90610f0e565b80601f016020809104026020016040519081016040528092919081815260200182805461086690610f0e565b80156108b35780601f10610888576101008083540402835291602001916108b3565b820191906000526020600020905b81548152906001019060200180831161089657829003601f168201915b505050505081526020016001820180546108cc90610f0e565b80601f01602080910402602001604051908101604052809291908181526020018280546108f890610f0e565b80156109455780601f1061091a57610100808354040283529160200191610945565b820191906000526020600020905b81548152906001019060200180831161092857829003601f168201915b50505050508152505081526020019060010190610807565b60408051606081018252338082526020808301868152838501869052600092835260019182905293909120825181546001600160a01b0319166001600160a01b039091161781559251919291908201906109b79082610f93565b50604082015160028201906109cc9082610f93565b5050336000908152600260205260409020805460ff19166001179055505050565b6001602081905260009182526040909120805491810180546001600160a01b0390931692610a1a90610f0e565b80601f0160208091040260200160405190810160405280929190818152602001828054610a4690610f0e565b8015610a935780601f10610a6857610100808354040283529160200191610a93565b820191906000526020600020905b815481529060010190602001808311610a7657829003601f168201915b505050505090806002018054610aa890610f0e565b80601f0160208091040260200160405190810160405280929190818152602001828054610ad490610f0e565b8015610b215780601f10610af657610100808354040283529160200191610b21565b820191906000526020600020905b815481529060010190602001808311610b0457829003601f168201915b5050505050905083565b6003602052816000526040600020818154811061038f57600080fd5b80356001600160a01b0381168114610b5e57600080fd5b919050565b600060208284031215610b7557600080fd5b610b7e82610b47565b9392505050565b6000815180845260005b81811015610bab57602081850181015186830182015201610b8f565b506000602082860101526020601f19601f83011685010191505092915050565b602080825282516001600160a01b03168282015282015160606040830152600090610bf96080840182610b85565b90506040840151601f19848303016060850152610c168282610b85565b95945050505050565b60008060408385031215610c3257600080fd5b610c3b83610b47565b946020939093013593505050565b604081526000610c5c6040830185610b85565b8281036020840152610c168185610b85565b6000815160408452610c836040850182610b85565b905060208301518482036020860152610c168282610b85565b6000602080830181845280855180835260408601915060408160051b870101925083870160005b82811015610cf157603f19888603018452610cdf858351610c6e565b94509285019290850190600101610cc3565b5092979650505050505050565b634e487b7160e01b600052604160045260246000fd5b600082601f830112610d2557600080fd5b813567ffffffffffffffff80821115610d4057610d40610cfe565b604051601f8301601f19908116603f01168101908282118183101715610d6857610d68610cfe565b81604052838152866020858801011115610d8157600080fd5b836020870160208301376000602085830101528094505050505092915050565b600080600060608486031215610db657600080fd5b610dbf84610b47565b9250602084013567ffffffffffffffff80821115610ddc57600080fd5b610de887838801610d14565b93506040860135915080821115610dfe57600080fd5b50610e0b86828701610d14565b9150509250925092565b6000602080830181845280855180835260408601915060408160051b870101925083870160005b82811015610cf157603f19888603018452610e58858351610c6e565b94509285019290850190600101610e3c565b60008060408385031215610e7d57600080fd5b823567ffffffffffffffff80821115610e9557600080fd5b610ea186838701610d14565b93506020850135915080821115610eb757600080fd5b50610ec485828601610d14565b9150509250929050565b6001600160a01b0384168152606060208201819052600090610ef290830185610b85565b8281036040840152610f048185610b85565b9695505050505050565b600181811c90821680610f2257607f821691505b602082108103610f4257634e487b7160e01b600052602260045260246000fd5b50919050565b601f821115610f8e57600081815260208120601f850160051c81016020861015610f6f5750805b601f850160051c820191505b818110156107c957828155600101610f7b565b505050565b815167ffffffffffffffff811115610fad57610fad610cfe565b610fc181610fbb8454610f0e565b84610f48565b602080601f831160018114610ff65760008415610fde5750858301515b600019600386901b1c1916600185901b1785556107c9565b600085815260208120601f198616915b8281101561102557888601518255948401946001909101908401611006565b50858210156110435787850151600019600388901b60f8161c191681555b5050505050600190811b0190555056fea264697066735822122040785b74b582acc7e91473dac98b8486a6a1a5c3aee5dff82fa3c29480666fba64736f6c63430008110033",
  "devdoc": {
    "kind": "dev",
    "methods": {},
    "version": 1
  },
  "userdoc": {
    "kind": "user",
    "methods": {},
    "version": 1
  },
  "storageLayout": {
    "storage": [
      {
        "astId": 11,
        "contract": "contracts/EmailEon.sol:EmailEon",
        "label": "emails",
        "offset": 0,
        "slot": "0",
        "type": "t_mapping(t_address,t_array(t_struct(Email)31_storage)dyn_storage)"
      },
      {
        "astId": 16,
        "contract": "contracts/EmailEon.sol:EmailEon",
        "label": "profiles",
        "offset": 0,
        "slot": "1",
        "type": "t_mapping(t_address,t_struct(Profile)38_storage)"
      },
      {
        "astId": 20,
        "contract": "contracts/EmailEon.sol:EmailEon",
        "label": "hasProfile",
        "offset": 0,
        "slot": "2",
        "type": "t_mapping(t_address,t_bool)"
      },
      {
        "astId": 26,
        "contract": "contracts/EmailEon.sol:EmailEon",
        "label": "subscribeTo",
        "offset": 0,
        "slot": "3",
        "type": "t_mapping(t_address,t_array(t_struct(Subscription)43_storage)dyn_storage)"
      }
    ],
    "types": {
      "t_address": {
        "encoding": "inplace",
        "label": "address",
        "numberOfBytes": "20"
      },
      "t_array(t_struct(Email)31_storage)dyn_storage": {
        "base": "t_struct(Email)31_storage",
        "encoding": "dynamic_array",
        "label": "struct EmailEon.Email[]",
        "numberOfBytes": "32"
      },
      "t_array(t_struct(Subscription)43_storage)dyn_storage": {
        "base": "t_struct(Subscription)43_storage",
        "encoding": "dynamic_array",
        "label": "struct EmailEon.Subscription[]",
        "numberOfBytes": "32"
      },
      "t_bool": {
        "encoding": "inplace",
        "label": "bool",
        "numberOfBytes": "1"
      },
      "t_mapping(t_address,t_array(t_struct(Email)31_storage)dyn_storage)": {
        "encoding": "mapping",
        "key": "t_address",
        "label": "mapping(address => struct EmailEon.Email[])",
        "numberOfBytes": "32",
        "value": "t_array(t_struct(Email)31_storage)dyn_storage"
      },
      "t_mapping(t_address,t_array(t_struct(Subscription)43_storage)dyn_storage)": {
        "encoding": "mapping",
        "key": "t_address",
        "label": "mapping(address => struct EmailEon.Subscription[])",
        "numberOfBytes": "32",
        "value": "t_array(t_struct(Subscription)43_storage)dyn_storage"
      },
      "t_mapping(t_address,t_bool)": {
        "encoding": "mapping",
        "key": "t_address",
        "label": "mapping(address => bool)",
        "numberOfBytes": "32",
        "value": "t_bool"
      },
      "t_mapping(t_address,t_struct(Profile)38_storage)": {
        "encoding": "mapping",
        "key": "t_address",
        "label": "mapping(address => struct EmailEon.Profile)",
        "numberOfBytes": "32",
        "value": "t_struct(Profile)38_storage"
      },
      "t_string_storage": {
        "encoding": "bytes",
        "label": "string",
        "numberOfBytes": "32"
      },
      "t_struct(Email)31_storage": {
        "encoding": "inplace",
        "label": "struct EmailEon.Email",
        "members": [
          {
            "astId": 28,
            "contract": "contracts/EmailEon.sol:EmailEon",
            "label": "storeId",
            "offset": 0,
            "slot": "0",
            "type": "t_string_storage"
          },
          {
            "astId": 30,
            "contract": "contracts/EmailEon.sol:EmailEon",
            "label": "secretName",
            "offset": 0,
            "slot": "1",
            "type": "t_string_storage"
          }
        ],
        "numberOfBytes": "64"
      },
      "t_struct(Profile)38_storage": {
        "encoding": "inplace",
        "label": "struct EmailEon.Profile",
        "members": [
          {
            "astId": 33,
            "contract": "contracts/EmailEon.sol:EmailEon",
            "label": "owner",
            "offset": 0,
            "slot": "0",
            "type": "t_address"
          },
          {
            "astId": 35,
            "contract": "contracts/EmailEon.sol:EmailEon",
            "label": "email",
            "offset": 0,
            "slot": "1",
            "type": "t_string_storage"
          },
          {
            "astId": 37,
            "contract": "contracts/EmailEon.sol:EmailEon",
            "label": "userID",
            "offset": 0,
            "slot": "2",
            "type": "t_string_storage"
          }
        ],
        "numberOfBytes": "96"
      },
      "t_struct(Subscription)43_storage": {
        "encoding": "inplace",
        "label": "struct EmailEon.Subscription",
        "members": [
          {
            "astId": 40,
            "contract": "contracts/EmailEon.sol:EmailEon",
            "label": "email",
            "offset": 0,
            "slot": "0",
            "type": "t_string_storage"
          },
          {
            "astId": 42,
            "contract": "contracts/EmailEon.sol:EmailEon",
            "label": "storeId",
            "offset": 0,
            "slot": "1",
            "type": "t_string_storage"
          }
        ],
        "numberOfBytes": "64"
      }
    }
  }
}